:020000040800F2
:10000000805A01208D030008893E000881310008D4
:100010001D3C0008ED1A0008D96A00080000000025
:10002000000000000000000000000000A102000825
:100030001128000800000000F5020008CD47000864
:10004000A7030008A7030008A7030008A7030008E8
:10005000A7030008A7030008A7030008A7030008D8
:10006000A7030008A7030008A7030008A7030008C8
:10007000A7030008A7030008A7030008A7030008B8
:10008000A7030008A7030008A7030008A7030008A8
:10009000F11A0008A7030008A70300086928000850
:1000A000A7030008A7030008A7030008A703000888
:1000B00045480008A7030008A7030008A703000895
:1000C000A7030008A7030008A7030008A703000868
:1000D000A703000811690008A70300086969000860
:1000E000A7030008A7030008A7030008A703000848
:1000F000A7030008A7030008A7030008A703000838
:10010000A7030008A7030008A7030008A703000827
:10011000A7030008A7030008A7030008A703000817
:10012000A7030008A7030008A7030008A703000807
:10013000A7030008A7030008A7030008A7030008F7
:10014000011B0008A7030008A7030008A703000875
:10015000A7030008A7030008A70300087D6900089B
:10016000A7030008A7030008A7030008A7030008C7
:10017000A7030008A7030008A70300080000000069
:10018000A7030008A70300083563000849630008B7
:10019000A7030008A7030008A7030008A703000897
:1001A0000000000000000000A703000800F002F8B3
:1001B00000F067F80AA090E8000C82448344AAF19A
:1001C0000107DA4501D100F05CF8AFF2090EBAE898
:1001D0000F0013F0010F18BFFB1A43F0010318477B
:1001E000E8BA000008BB00000A444FF0000C10F809
:1001F000013B13F0070408BF10F8014B1D1108BFA5
:1002000010F8015B641E05D010F8016B641E01F844
:10021000016BF9D113F0080F1EBF10F8014BAD1C94
:100220000C1B09D16D1E58BF01F801CBFAD505E0B2
:1002300014F8016B01F8016B6D1EF9D59142D6D30C
:10024000704700000023002400250026103A28BF34
:1002500078C1FBD8520728BF30C148BF0B60704738
:10026000782900F02B81002070471FB50BF059FA58
:100270009DE8030000F000FB00F0E9F91FBD10B598
:1002800010BD00F019FC1146FFF7EFFF08F0D2F89F
:1002900000F037FC03B4FFF7F2FF03BC00F068FC8A
:1002A0002A4B19680868B0E8F04F80F30988BFF35B
:1002B0006F8F4FF0000080F311887047000000003E
:1002C00006480068006880F3088862B661B6BFF32C
:1002D0004F8FBFF36F8F00DF00BF00BF08ED00E05E
:1002E000DFF80C00016841F470010160704700BF45
:1002F00088ED00E0EFF30980BFF36F8F134B1A68AE
:100300001EF0100F08BF20ED108A20E9F04F10609A
:1003100008B44FF0500080F31188BFF34F8FBFF344
:100320006F8F09F0CFFB4FF0000080F3118808BCFD
:1003300019680868B0E8F04F1EF0100F08BFB0EC65
:10034000108A80F30988BFF36F8F70471000002078
:10035000EFF30580704700000B49D1F800C04A68F0
:100360005CF8043B1068184442F8040B8C4528BF25
:10037000A1F1DC0C8A4228BFA1F1DC02C1F800C067
:100380004A6020F000407047144601200948804729
:1003900009480047FEE7FEE7FEE7FEE7FEE7FEE767
:1003A000FEE7FEE7FEE7FEE704480549054A064B7F
:1003B00070470000DD470008AD01000880460120BD
:1003C000805A0120805601208056012070B50646D3
:1003D00000F036FA056806F10B0020F00704B4427D
:1003E0009CBF002070BD2B466A68BAB11068A0425D
:1003F00010D304F1080188423CBF5068586007D30D
:100400005168101941601168091B0160586014603F
:10041000101D70BD13465268002AE7D121462846B8
:1004200000F016FA0028DED170BD00000FB40449B8
:1004300010B503AA029800F0FFFA10BC5DF814FB97
:100440002C0100200FB41CB5074B06AA7B4469465B
:100450000090059800F0D7FA0020694600F0E6FA0F
:100460001CBC5DF814FB0000DD05000070B50446FF
:1004700085690068C10601D5302600E02026C00746
:1004800007D070BDD4E9012130469047206A401C56
:1004900020626D1EF6D570BD70B504468569007882
:1004A000C00707D170BDD4E9012120209047206A00
:1004B000401C20626D1EF6D570BD000070B504466C
:1004C0000D4621461068AFF300802188090502D54A
:1004D0000F4A7A4402E00E4A7A440E32002104F1B7
:1004E000240305E000F00F060009965D5E54491CE8
:1004F0000028F7D120780023000704D5702D02D002
:1005000009B1022311322046BDE8704000F01CBA48
:1005100052B600002DE9F0474FF0000A8946044624
:10052000C0F820A02046E1688847002876D025281A
:1005300006D0D4E901219047206A401C2062F1E7EF
:10054000E168204600258847C4F81CA0064600271D
:10055000C4F818A02A2E09D0304607F0A9FE38B3F7
:1005600004EB8708303EC8F8186019E059F8041BFE
:10057000204604EB87029161E1688847012F064617
:1005800018D1E069002820DA25F020051DE0D8F810
:10059000180000EB800006EB40003038C8F8180067
:1005A0002046E1688847064607F082FE0028EED123
:1005B000012F0AD02E2E08D12046E16888477F1CE3
:1005C0000646022F45F02005C4DBA069002803DAA7
:1005D000404245F00105A061E80701D025F0100573
:1005E000B6B1A6F14100192802D8203645F40065BD
:1005F0004A463146204625604D46FFF731FE58B148
:10060000012806D0ED1D25F0070000F1080989E753
:1006100004E005F1040985E730468AE7206ABDE871
:10062000F08700000B4910B5A1F17C020A4CC2E929
:100630003712372106E000EB104342F82130074B18
:1006400000FB03400B1EA1F10101F4DC10BD0120F1
:10065000E8E70000B4450120E119D666CD0D0100A0
:1006600040EA0103024630B59B0710D14FF0013438
:1006700000E008C208C91D1B9D4315EAC41FF8D03D
:1006800013F0FF0102F8011B0DD01B0AF8E711F867
:10069000013B002B02F8013B05D011F8013B002B78
:1006A00002F8013BF3D130BD032A40F2308010F054
:1006B000030C00F0158011F8013BBCF1020F6244FD
:1006C00098BF11F801CB00F8013B38BF11F8013B8E
:1006D000A2F1040298BF00F801CB38BF00F8013B3B
:1006E00011F0030300F02580083AC0F0088051F8AB
:1006F000043B083A51F804CBA0E80810F5E7121DB6
:100700005CBF51F8043B40F8043BAFF30080D207D4
:1007100024BF11F8013B11F801CB48BF11F8012BA0
:1007200024BF00F8013B00F801CB48BF00F8012BC3
:10073000704710B5203AC0F00B80B1E81850203A4D
:10074000A0E81850B1E81850A0E81850BFF4F5AF71
:100750005FEA027C24BFB1E81850A0E8185044BFFB
:1007600018C918C0BDE810405FEA827C24BF51F868
:10077000043B40F8043B08BF7047D20728BF31F85C
:10078000023B48BF11F8012B28BF20F8023B48BFAD
:1007900000F8012B704702F0FF0343EA032242EA0C
:1007A000024200F002B84FF000020429C0F01280AB
:1007B00010F0030C00F01B80CCF1040CBCF1020F14
:1007C00018BF00F8012BA8BF20F8022BA1EB0C01E9
:1007D00000F00DB85FEAC17C24BF00F8012B00F8DF
:1007E000012B48BF00F8012B70474FF0000200B505
:1007F000134694469646203922BFA0E80C50A0E844
:100800000C50B1F12001BFF4F7AF090728BFA0E8F1
:100810000C5048BF0CC05DF804EB890028BF40F8BD
:10082000042B08BF704748BF20F8022B11F0804FFF
:1008300018BF00F8012B70477047704770470000E1
:100840000048704724460120704770477047704742
:1008500038B504460A4600206946AFF300800028F8
:1008600008BF38BD02460099204600F0FFF801207D
:1008700038BD012000F018B9F8B5AFF30080054687
:1008800000200C46102000BF0646A819A0420DD932
:10089000324669460020AFF30080070008BF00F031
:1008A00003F90098A04218BF0546C419FFF7C8FF16
:1008B00005600746F01D20F007004619284600F0A5
:1008C0000AF8B44208BFF8BDA21B31463868BDE83B
:1008D000F84000F0CBB800210160C0E9011070477A
:1008E0001020704770B50446051FFFF7A9FF006888
:1008F000002C14BF446870BD002C18BFAC423CBF34
:1009000020466468F8D301680A18AA4218BF4560F7
:1009100003D12A6805461144016028684119A142A3
:100920001CBF6C6070BD6168696021680844286004
:1009300070BD10B500F096F8006810BD10B5044603
:1009400000F090F8046010BD2DE9F0470D4699467F
:100950009246044600F124080168880604D5E0693F
:1009600021F01001216000E00120A84201DD471BB9
:1009700000E00027A1697A1902EB0900081AA061BA
:100980002078C00602D42046FFF770FD002608E05C
:10099000D4E901211AF806009047206A401C761C11
:1009A00020624E45F4DB2078C0060AD52046FFF7CA
:1009B0005DFD06E0D4E9012130209047206A401C0B
:1009C0002062381EA7F10107F4DC07E0D4E9012119
:1009D00018F805009047206A401C2062281EA5F1E7
:1009E0000105F3DC2046FFF757FD2078000602D50D
:1009F0000220BDE8F0870120FBE7000001694A1CE6
:100A000002610878704700B58FB0CDE9013100214F
:100A1000059105497944CDE9031011466846FFF771
:100A200079FD0FB000BD0000E5FFFFFF0A6802F886
:100A3000010B0A6070470000074B70B50D467B4400
:100A4000FFF7E1FF0446284600F02AF810B14FF006
:100A5000FF3070BD204670BD9B7900000048704794
:100A60001C460120004870471C4601200346406890
:100A70008C46002818BF88423CBF03464068F8D324
:100A800018681844884207D00CF1030020F00700D2
:100A9000001D411A521A0146081D0A60FFF722BFC5
:100AA000007B00F08000704710B500F039F8BDE819
:100AB000104000F02FB870477546FFF7CFFFAE46E5
:100AC00005006946534620F00700854618B020B55A
:100AD000FFF76AFCBDE820404FF000064FF000072A
:100AE0004FF000084FF0000B21F00701AC46ACE8D6
:100AF000C009ACE8C009ACE8C009ACE8C0098D4643
:100B0000704710B50446AFF300802046BDE81040A2
:100B1000FFF7C0BB002801D000F02AB870470000E2
:100B200010B5012805D0002103A000F027F801200E
:100B300010BD09A1F8E7000053494752544D454DF7
:100B40003A204F7574206F662068656170206D656E
:100B50006D6F7279000000003A2048656170206D69
:100B6000656D6F727920636F727275707465640061
:100B700001491820ABBEFEE72600020070B505460D
:100B80000C460A2000E06D1C00F011F835B1287801
:100B90000028F8D102E0641C00F009F814B12078B4
:100BA0000028F8D1BDE870400A20AFF3008008B5F6
:100BB00069468DF800000320ABBE08BD00B58BB0C0
:100BC0000121402003F09EFC0121802003F08AFCDB
:100BD000092206211F4801F08BFF402009900220C6
:100BE0008DF8280003208DF8290000208DF82A00B8
:100BF00001208DF82B0009A9164801F031FF59207A
:100C0000ADF818000020ADF81A0001200790002070
:100C1000ADF8200006A9104803F0BEFF6020ADF833
:100C200004000120ADF806000020ADF8100001A975
:100C3000094803F065FE0821074803F09FFE0121E3
:100C4000054803F015FE0121034803F023FE0BB015
:100C500000BD0000001C02400018004000B58BB031
:100C60000121082003F03EFC02208DF8280000201E
:100C70008DF82A000320099001208DF82B00032015
:100C80008DF8290009A9684801F0EAFE092200212F
:100C9000654801F02DFF09220121634801F028FF7A
:100CA0000121022003F01EFC02208DF82800002004
:100CB0008DF82A004FF44050099001208DF82B0048
:100CC00003208DF8290009A9584801F0C9FE09221E
:100CD0000C21564801F00CFF09220D21534801F068
:100CE00007FF0121480603F00DFC0121880603F0EF
:100CF00009FC00208DF81F008DF8200008208DF8D9
:100D00001C0004208DF81D0000208DF81A008DF8BD
:100D100021000320ADF8180000208DF822008DF886
:100D20001B008DF81E008DF8230006A9404800F036
:100D30007CFF01208DF815000020ADF81000ADF803
:100D40000800ADF80A00ADF80C00ADF80E008DF803
:100D500013008DF8120001208DF8140002A800F095
:100D6000D7FE01208DF81F0000208DF820000820FC
:100D70008DF81C0004208DF81D0000208DF81A004D
:100D80008DF821000320ADF8180000208DF8220016
:100D90008DF81B008DF81E008DF8230006A925484C
:100DA00000F043FF01208DF815000020ADF8100081
:100DB000ADF80800ADF80A00ADF80C00ADF80E0073
:100DC0008DF813000E208DF8120001208DF814000C
:100DD00002A800F09DFE14208DF8040001208DF87B
:100DE00007008DF8050000208DF8060001A803F02B
:100DF0004DF8012202210E4800F00EFF40208DF830
:100E0000040001208DF807008DF8050000208DF802
:100E1000060001A803F03AF801220221054800F07B
:100E2000FBFE0BB000BD0000000C024000040240BD
:100E3000006400400068004010B59AB0044640F2DB
:100E40002440254908222523CDE90632CDE90810A2
:100E5000042010210222214BCDE90232CDE90410F9
:100E6000802007210B460A46CDE9001002211C48CC
:100E700000F074FB01224021194805F095FD012185
:100E8000880503F02FFB4FF000600B901448001D05
:100E90000C900D9400200E9013200F9000201090C5
:100EA0004FF48060119000201390129014904FF432
:100EB0008030159000201690032017900020189085
:100EC00019900BA9074801F075FC0121054801F0B4
:100ED00001FC1AB010BD0000A08601000004024011
:100EE000001001404064024070B598B004460D46C1
:100EF000164604EBC4002C4A02EB800124220FA802
:100F0000FFF717FC0A2C0DDA9DF8400028B90122E2
:100F100080210F9805F048FD04E0012240210F9840
:100F200005F042FD21491198884204D1012148056C
:100F300003F0D8FA03E00121880503F0D3FA002C6E
:100F400004DB092C02DC0F98001D01909DF8400085
:100F500030B94020039000200B9003200C9005E056
:100F60000020039004200B9010200C901498009007
:100F700002950496002005904FF4806006900020B2
:100F80000890079009904FF480300A9000200D904F
:100F90000E906946129801F00DFC0121129801F0A3
:100FA00099FB18B070BD00009C0100200060024059
:100FB00000B585B00121202003F094FA01208DF8BE
:100FC000100000208DF812004FF480600390012083
:100FD0008DF8130003208DF8110003A93D4801F09E
:100FE0003FFD0121880303F09DFA0121202003F039
:100FF00079FA01208DF8100000208DF812004FF4CE
:101000002070039001208DF8130003208DF811004B
:1010100003A9304801F024FD00208DF810008DF860
:1010200012004020039001208DF8130003208DF85A
:10103000110003A9274801F013FD00208DF81000CE
:101040008DF812004FF48070039002208DF8130089
:1010500003208DF8110003A91E4801F001FD0121B4
:10106000022003F03FFA4FF48070039000208DF8C7
:1010700010008DF8120001208DF8130002208DF869
:10108000110003A9144801F0EBFC17208DF80800AB
:1010900008208DF8090000208DF80A0001208DF845
:1010A0000B0002A802F0F2FE0821012003F0C6FAAC
:1010B0004FF48070009000208DF804000C208DF813
:1010C000050001208DF80600684601F0F9FB05B027
:1010D00000BD000000140240000402401CB50121C4
:1010E000402003F0FFF94FF4FF70009001208DF8CD
:1010F000040000208DF8060003208DF80500012073
:101100008DF807006946044801F0AAFC4FF4FF710E
:10111000014801F01BFD1CBD001802401CB5012157
:10112000402003F0DFF901208DF8040000208DF845
:1011300006004FF40050009001208DF807000320B6
:101140008DF805006946024801F08AFC1CBD0000CC
:1011500000180240F0B58BB004460D4616461F46F7
:101160000121606903F0BEF9227A238A99B2E0690D
:1011700001F0BEFC208B069002208DF81C0003209D
:101180008DF81D0000208DF81E0001208DF81F0035
:1011900006A9E06901F064FC3749206A884203D05F
:1011A0003649206A884204D10121206803F0BAF947
:1011B00003E00121206803F0A5F9681E80B2ADF8B4
:1011C00020000020ADF82200701E09900020ADF82C
:1011D000280008A9206A03F0DFFC7020ADF80400A5
:1011E0000120ADF80600ADF8107005200390607A7C
:1011F000012808D101A9206A03F082FB0821206A96
:1012000003F0BCFB22E0607A022808D101A9206A21
:1012100003F0BEFB0821206A03F00CFC16E0607AA4
:10122000032808D101A9206A03F012FC0821206AD2
:1012300003F05EFC0AE0607A042807D101A9206A65
:1012400003F060FC0821206A03F098FC0121206A69
:1012500003F00EFB0121206A03F01CFB0649206A03
:10126000884203D00549206A884203D10121206ABF
:1012700003F01CFB0BB0F0BD000001400004014076
:101280000A0F0260C1F303624FF0804303EB024296
:10129000C1F3035302EB03224260C1F30342027223
:1012A000C1F303324272C1F307120E4B03EB022269
:1012B000C26001F00F020261C1F30712930801221C
:1012C0009A40426101F00F0301229A400283427A60
:1012D000302303EB82028276C268C26142680262F6
:1012E00070470000000002407CB504460D46012115
:1012F000202003F0F7F801208DF8040000208DF87D
:101300000600012000908DF8070003208DF80500ED
:101310006946454801F0A4FB00208DF804008DF8D3
:101320000600022000908DF8070003208DF80500CC
:1013300069463D4801F094FB0121102003F0D2F8EA
:1013400001208DF8040000208DF8060041F2100005
:10135000009001208DF8070003208DF805006946F4
:10136000324801F07DFB00208DF804008DF8060066
:101370006020009002208DF8070003208DF8050002
:1013800069462A4801F06CFB0121022003F0AAF80B
:1013900001208DF8040000208DF806000120009047
:1013A0008DF8070003208DF805006946204801F0FC
:1013B00057FB0121042003F095F800208DF804006C
:1013C0008DF806000420009002208DF8070003200D
:1013D0008DF805006946174801F042FB01211248CB
:1013E00001F0B4FB41F21001104801F0AFFB012104
:1013F0000F4801F0ABFB20210C4801F09CFB064696
:101400000221094801F097FB46EA400020700421C0
:10141000084801F090FB06464021044801F08BFB90
:1014200046EA400028707CBD0014024000100240D3
:10143000000402400008024000B587B001210846C0
:1014400003F050F801221146224801F051FB02201E
:1014500005908DF8180003208DF8190000208DF8F4
:101460001A0001208DF81B0005A91A4801F0F8FAAE
:101470000121084603F046F80120039042F227308C
:10148000ADF808000020ADF80A00ADF8100002A980
:101490004FF0804003F080FB0121880703F0FAF948
:1014A0001C208DF8040007208DF8050000208DF821
:1014B000060001208DF8070001A802F0E7FC0122D8
:1014C0001146900703F012FA0121880703F0DCF9B6
:1014D00007B000BD0000024030B58BB004460D4699
:1014E0000220522107AA31C206910C20490701228D
:1014F000084BCDE90232CDE9041040010821072351
:101500000A46CDE900101021034800F027F80BB07F
:1015100030BD0000001002400078004030B58BB0B4
:1015200004460D460720532107AA31C206910C201C
:1015300041070122074BCDE90232CDE90410032017
:101540000023CDE9002008221021034800F006F80E
:101550000BB030BD00100240007C00402DE9F04F80
:1015600087B080460C4691461D46DDE918B7DDF888
:1015700040A0139E0121204602F0B4FF4A462946AE
:10158000129801F0B5FA4A465146129801F0B0FAA5
:101590001198059002208DF818008DF81900002090
:1015A0008DF81A0001208DF81B0005A9129801F092
:1015B00057FA012E04D10121149802F0A3FF05E08F
:1015C000022E03D10121149802F0ACFFCDF804B033
:1015D0000020ADF810001598ADF80E000020ADF811
:1015E0000800ADF80A00ADF80C0001A9404605F06E
:1015F00009FA0121404605F0CBF9B7B11698C0B2FF
:101600008DF800001798C0B28DF8010000208DF809
:10161000020001208DF80300684602F037FC012229
:101620003946404605F0C9F900BF07B0BDE8F08F64
:101630001CB50121802002F055FF01208DF8040027
:1016400000208DF806003C20009001208DF8070056
:1016500003208DF805006946094801F001FA0421CC
:10166000074801F073FA0821054801F06FFA1021CC
:10167000034801F06BFA2021014801F067FA1CBD14
:10168000001C0240704700002DE9F04107460E465D
:1016900014469846B4F5407F0FD2B4F5FF7F0CD9BD
:1016A000A4F20120012E01D10C2100E00021084408
:1016B00007EB8000C0F8008031E04546022E0DD0D7
:1016C000A4F5A060012E01D1052100E00021014414
:1016D00007F1600000EB810005601CE0C4EBC40171
:1016E000104A11448878802205F19001FFF7FCFB35
:1016F000C4EBC4010B4A11444878802205F10D0166
:10170000FFF7F2FBC4EBC4000649095C07F188004F
:1017100000EB81000560C5F801402E7000BFBDE8F8
:10172000F0810000040700202DE9F04107464FF04A
:10173000FF3600240EE007EB840005684DB108F089
:1017400095FEE989401A642803D966B200202874FE
:1017500002E0641C182CEEDB00BF701C68B10C2E7C
:1017600004DA81B2F02001F0B1FF08E0A6F10B002D
:1017700081B20F2001F0AAFF01E001F0F9FEBDE8FF
:10178000F08100002DE9F04385B007460E460EB902
:10179000224900E0224908466A46002100F0CFFABB
:1017A000009DB5F5407F14D2B5F5FF7F11D9A5F2A4
:1017B0000120012E01D10C2100E00021084407EB9B
:1017C0008000D0F800900DF10B01484602F03EFA7F
:1017D00021E000241BE0A5F5A060012E01D1052128
:1017E00000E00021014407F1600000EB8100D0F827
:1017F00000800CB9012000E00020A8F8A0010DF144
:101800000B00015D404602F043FD601C84B29DF870
:101810000A00A042DFDC05B0BDE8F08300640040B0
:10182000006800402DE9F04707468A461446C4EB9D
:10183000C4002049095C07F1880000EB81000668BC
:10184000C4EBC4001B490844D0F80300B0F804906E
:10185000C4EBC4000844D0F80300B0F80090C4EB17
:10186000C401144A1144887800F040FFC4EBC4015D
:10187000104A1144887800F081FFC0F180001FFAFF
:1018800080F800250AE00120A6F8A00106F19000EA
:10189000415D304602F0FCFC681C85B24545F2DB38
:1018A000C4EBC401034A11448878802100F032FF60
:1018B000BDE8F087040700202DE9FC5F80460F4655
:1018C0004046FFF731FF00247DE00CB1012000E02D
:1018D00000208346002573E000203D490860002673
:1018E0003AE03C4800EBC50030F816A0AAF201200F
:1018F000BBF1010F01D10C2100E00021084408EBED
:1019000080000068344908600846006850B1084605
:10191000006890F8280028B108460068007C08B1EB
:10192000012000E000208146B9F1000F04D02A48D0
:101930000068B0F92A0000E00020284921F81600CC
:101940002348006810B9B9F1000F01D0012000E070
:1019500000201F490860761C042EC2DB1C4800686A
:10196000D8B1D7B91D48B0F906001C49B1F9041027
:10197000DFF868C0CDE90010BCF90230BCF90020E6
:10198000DFF85CC03CF815C00FFA8CF1DFF854C0EA
:101990005CF8240000F02EFB11E00D48006870B1E7
:1019A0006FB1002000900E4A019032F8152011B25C
:1019B0000C4A52F8240000231A4600F01BFB6D1C51
:1019C000032D89DB641C022CFFF67FAFBDE8FC9F72
:1019D0006C070020520700207007002074070020C9
:1019E0004C07002044070020F0B589B007460D469B
:1019F0001646A8B202F052FB04462A460EA103A8DE
:101A0000FEF720FDA06910B1A06907F0D9FE27619B
:101A100000EE106AB8EE400A10EE100A6061A0698C
:101A2000062123464FF4FA72CDE9001003A90848B5
:101A300008F0DCFC09B0F0BD5461736B5F53656E58
:101A4000645F50726F746F636F6C5F253378000052
:101A5000296200082DE9F04104460E46D4F80170D1
:101A600094F8008094F88F0010B10020BDE8F08158
:101A7000012084F88F00B8F1020F15D0B1B22046D2
:101A800002F05EFB85B205F109018BB2B8F1000FDF
:101A900001D1134900E01349084604F10D0240F258
:101AA000015100F0E7FA15E0C7EBC7010E4A1144F7
:101AB000487800F01BFEB1B2204602F041FB85B22F
:101AC00005F1090291B2C7EBC702074B1A445078DF
:101AD00000F020FE002084F88F000120C6E70000FF
:101AE00000640040006800400407002000BFFEE7DB
:101AF00010B500210148FFF745FE10BDA0440120AC
:101B000010B501210148FFF73DFE10BDA0440120A2
:101B100010B50021837A012202FA03F13D4A1268CE
:101B200042F001023B4B1A603A4A1C3212688A4367
:101B3000384B1C331A60027BCAB9364A0C32126821
:101B40008A43344B0C331A604288C38842EA034309
:101B5000304A4032847A42F834300288838842EA3C
:101B600003432C4A4032847A02EBC4025360027B66
:101B7000012A19D1274A0C3212680A43254B0C332B
:101B80001A604288038842EA0343224A4032847A38
:101B900042F83430C288838842EA03431D4A403207
:101BA000847A02EBC4025360C27A3AB9194A121D10
:101BB00012688A43174B1B1D1A6006E0154A121D56
:101BC00012680A43134B1B1D1A60028932B9114A6D
:101BD000143212688A430F4B14331A600289012AA7
:101BE00006D10C4A143212680A430A4B14331A60A5
:101BF000427B012A06D1074A1C3212680A43054B70
:101C00001C331A60034A126822F00102014B1A6069
:101C100010BD0000006600401AB143690B434361E8
:101C200002E043698B434361704730B502460020B0
:101C30000023146824F002041460146844F00104C2
:101C4000146000E05B1C546804F001041CB94FF6FA
:101C5000FF74A342F6D1546804F001040CB90020CB
:101C60006CE08C79012C04D1146844F08004146079
:101C700003E0146824F080041460CC79012C04D1B2
:101C8000146844F04004146003E0146824F0400435
:101C900014600C7A012C04D1146844F02004146000
:101CA00003E0146824F0200414604C7A012C04D161
:101CB000146844F01004146003E0146824F0100465
:101CC00014608C7A012C04D1146844F00804146068
:101CD00003E0146824F008041460CC7A012C04D1C9
:101CE000146844F00404146003E0146824F004044D
:101CF00014608C78A407CD7844EA05640D7944EA31
:101D000005444D7944EA05540D886D1E2C43D46179
:101D1000146824F001041460002300E05B1C546884
:101D200004F001041CB14FF6FF74A342F6D15468CD
:101D300004F001040CB1002000E0012030BD10B51A
:101D400000F5D87303EB01131B6803F0040313724F
:101D5000137A53B900F5D87303EB01131B6840F2F3
:101D6000FF7404EA5353136009E000F5D87303EBE2
:101D700001131B686FF0604404EAD303536000F55D
:101D8000D87303EB01131B6803F00203537200F5D1
:101D9000D87303EB01135B6803F00F03937200F534
:101DA000D87303EB01135B681B0AD37400F5D87377
:101DB00003EB01139B68D37200F5D87303EB011397
:101DC0009B681C0A147300F5D87303EB01139B681E
:101DD0001C0C547300F5D87303EB01139B681B0EA6
:101DE000937300F5D87303EB0113DB68D37300F52D
:101DF000D87303EB0113DB681C0A147400F5D87365
:101E000003EB0113DB681C0C547400F5D87303EB6F
:101E10000113DB681B0E937421B9C36843F02003E0
:101E2000C36003E0036943F02003036110BD10B5F4
:101E300002460020936803F08063B3F1806F00D105
:101E400010E0936803F00063B3F1006F01D101204B
:101E500008E0936803F08053B3F1805F01D1022062
:101E600000E00420042874D002F5C07303EB0013D3
:101E70001B6803F0010402F5C07303EB00131C6040
:101E80000B7A7BB94B7A0C8843EA445302F5C07451
:101E900004EB00142468234302F5C07404EB00141F
:101EA000236010E00B7A4C6843EAC4034C7A234366
:101EB00002F5C07404EB00142468234302F5C074D7
:101EC00004EB001423608B7A03F00F038B7202F58E
:101ED000C07303EB00135B6823F00F0402F5C073BB
:101EE00003EB00135C6002F5C07303EB00135B6847
:101EF0008C7A234302F5C07404EB001463608B7B7F
:101F00001C064B7B44EA03440B7B44EA0323CC7A54
:101F1000234302F5C07404EB0014A3608B7C1C0601
:101F20004B7C44EA03440B7C44EA0323CC7B2343ED
:101F300002F5C07404EB0014E36002F5C07303EB18
:101F400000131B6843F0010402F5C07303EB001398
:101F50001C6010BD10B50246002321B1012907D035
:101F600002290FD109E090681D4C00EA04030BE040
:101F700090681C4C00EA040306E090681A4C00EAE2
:101F8000040301E0002300BF00BF184C181BA3424C
:101F900016D007DC83B16FF08060184470B102285E
:101FA00018D111E0B0F5007F10D0114C204448B199
:101FB000B0F5003F0ED10BE002230DE000230BE053
:101FC000002309E0002307E0012305E0012303E0EB
:101FD000012301E0002300BF00BFD8B210BD000004
:101FE00003000004000300080000031000010008C3
:101FF0000001FFF72DE9F04786B082460C461546F2
:102000001E46DDE90E89B4F5006F04DA0194002064
:102010008DF80C0003E0029404208DF80C000020E1
:102020008DF80D0008208DF80E00280A8DF80F009D
:102030008DF81050310A8DF811108DF812604FEAAA
:1020400018218DF813108DF814804FEA19218DF89E
:1020500015108DF8169001A95046FFF7E8FE0746C7
:1020600000BF39465046FFF775FF0128F9D106B089
:10207000BDE8F0872DE9F04186B007468846154651
:102080001E46002438E0082000FB0450407815F874
:10209000341040EA01200290082000FB0450C07870
:1020A000082101FB0451897840EA012003900820AF
:1020B00000FB04504079082101FB0451097940EAF2
:1020C00001200490082000FB0450C079082101FB86
:1020D0000451897940EA01200590059800B20499DD
:1020E00009B2CDE90010039803B2029802B241464A
:1020F0003846FFF77FFF641CF11706EB5171012290
:1021000002EBE101A142BEDC06B0BDE8F0810000B7
:10211000DFED2C0AB0EE600AD0ED030A90ED021A52
:1021200070EEC10A90ED041ADFED271A41EE610A44
:1021300060EE800AFDEEE00A10EE901A09B201800E
:10214000D0ED030A90ED021A70EE810A90ED041AA8
:10215000DFED1D1A41EE610A60EE800AFDEEE00A35
:1021600010EE901A09B24180D0ED030A90ED021AE8
:1021700070EEC10A90ED041ADFED131A41EE210A48
:10218000B1EE401A60EE810AFDEEE00A10EE901A00
:1021900009B28180D0ED030A90ED021A70EE810A37
:1021A00090ED041ADFED081A41EE210AB1EE401A53
:1021B00060EE810AFDEEE00A10EE901A09B2C180CD
:1021C0007047000009AC7C43F2D2CD3E10B52DED36
:1021D000088B0446B0EE40AAB0EE4A0A07F0EAFCCB
:1021E000B0EE40BAF0EE60BA51EC1B0B08F094FB75
:1021F00008EE100AB0EE4A0A07F0CAFCB0EE40BA88
:10220000F0EE60BA51EC1B0B08F086FB08EE900A6A
:1022100094ED020AB0EE409A94ED030AF0EE409A73
:1022200029EEA80A09EE480A84ED030A29EE880A75
:1022300009EE280A84ED020ABDEC088B10BD0000EF
:1022400010B504469FED1B0A84ED020A9FED190AA2
:1022500084ED030A9FED170A84ED040A9FED150A29
:1022600084ED140A9FED130A84ED170A9FED110AFD
:1022700084ED180A9FED100A84ED160A9FED0E0AF0
:1022800084ED150A9FED0D0A84ED1D0AB7EE000AD4
:1022900084ED1B0AB2EE042ADFED091A9FED051A40
:1022A000DFED040AB7EE000A04F1140001F0C0FEED
:1022B00010BD0000000000000000A04200007042BD
:1022C0000000FA4370B52DED0C8B0446B0EE408A49
:1022D000F0EE608AB0EE419AF0EE619A04F11405D6
:1022E00084ED168AC4ED178AC4ED199A94ED170A85
:1022F000D4ED180AB4EE600AF1EE10FA10D094EDA5
:10230000170A84ED140A94ED170A84ED180A84ED77
:102310001C9A0020A066B7EE000A84ED1B0A64E058
:10232000A06E401CA06694ED1B0AD4ED140A20EEAA
:10233000200AB0EE40AA94ED190AB1EE400A10EE60
:10234000101A084609F07CF941EC1D0B9FED450B76
:1023500053EC102B08F0D6FD41EC1C0BB0EE4C1AE0
:10236000F0EE6C1A9FED410B05F0A2F8B0EE40BA0A
:10237000F0EE60BA51EC1B0B08F0CEFA0AEE900AB0
:1023800094ED140A70EE4A0AB0EE4A0A00EEAA0A68
:1023900084ED140A94ED170AD4ED150A70EE600A64
:1023A00094ED191A94ED1C0A00EEC10A84ED1C0A82
:1023B00094ED1C0AB5EEC00AF1EE10FA02DD94EDC0
:1023C0001C0A03E09FED2B0A84ED1C0AD4ED1D0AC4
:1023D000B4EEE00AF1EE10FA02D294ED1C0A01E02C
:1023E00094ED1D0A84ED1C0A00BF94ED141AF0EE62
:1023F000410A94ED161AB0EE410A284601F08CFD10
:1024000094ED140AD5ED0D0A30EE200AD4ED140A2D
:1024100080EE201A84ED1B1A94ED1B0AB5EEC00A5B
:10242000F1EE10FA02DD94ED1B0A03E09FED110AB4
:1024300084ED1B0AF7EE000AB4EEE00AF1EE10FAA2
:1024400002D294ED1B0A01E0B7EE000A84ED1B0AEC
:10245000D4ED1B0AB0EE600A204600F04BF8BDEC4C
:102460000C8B70BD000000000000394090F7AA9569
:1024700009BF05400000000000B50346F0EE401A19
:102480009FED1B0AB0EE402A9FED190AF0EE402A9C
:10249000002001EE100A002219E033F91200002892
:1024A00002DB33F9120002E033F91200404200B2BD
:1024B00001EE100AB8EEC10AB4EEC20AF1EE10FA4B
:1024C00003DDB8EEC10AB0EE402A501CC2B2042AA5
:1024D000E3DBB4EEE12AF1EE10FA08DD81EE820AC8
:1024E000F0EE402AB0EE620A184600F003F800BD94
:1024F00000000000B0F9001000EE901AF8EEE00ABB
:1025000060EE800AFDEEE00A10EE901A09B201803A
:10251000B0F9021000EE901AF8EEE00A60EE800AC0
:10252000FDEEE00A10EE901A09B24180B0F90410F5
:1025300000EE901AF8EEE00A60EE800AFDEEE00A86
:1025400010EE901A09B28180B0F9061000EE901AD0
:10255000F8EEE00A60EE800AFDEEE00A10EE901A56
:1025600009B2C180704780ED020AC0ED030A80ED18
:10257000041A70470023037281F826308B8403808D
:1025800043808380C3801380538093800B80704787
:1025900070B5012505721D785E7845EA0625C5F3FC
:1025A0000A0505800588A5F580652DB205805D7852
:1025B000ED109E7845EA4615C5F30A054580458825
:1025C000A5F580652DB245809D78AD11DE7845EA90
:1025D00086051E7945EA8625C5F30A058580858826
:1025E000A5F580652DB285801D796D105E7945EA6F
:1025F000C615C5F30A05C580C588A5F580652DB249
:10260000C5805D792D11AD0845725D79C5F3011561
:1026100085729D79DE7945EA06252DB215801D7AF1
:102620005E7A45EA06252DB255809D7ADE7A45EA26
:1026300006252DB295801D7B95715D7BD5718D8CA6
:102640006E1CEE1705EB9656B612A5EB86268E8409
:1026500000254D84002412E00D1D35F81450002D86
:102660000CDD0D1D35F814506D1EAEB20D1D25F894
:1026700014604E8C0125A54035444D84641C0F2CFC
:10268000EADB9D7BDE7B45EA06254E8CB5430D805B
:102690000D880DB9158815B1012581F8265070BD3A
:1026A0000246094B9A4201D2084801E00648103818
:1026B00001F000531BB1064B0B40C36002E0044B1A
:1026C0000B408360704700001064024000600240CD
:1026D0007D0F7D0F21B1026842F00102026003E02C
:1026E000026822F0010202607047000010B58AB053
:1026F000044604EBC400064A02EB8001242201A830
:10270000FEF717F800210498FFF7E4FF0AB010BDA8
:102710009C01002030B589B004460D4604EBC4008E
:102720000E4A02EB800124226846FEF702F8DDE93A
:10273000072342EA03010398FFF7B2FF00BF0398A3
:1027400000F00EF80028FAD12946039800F05EF850
:1027500001210398FFF7BEFF09B030BD9C010020A6
:10276000014600200A6802F001020AB1012000E0DF
:10277000002070470146486880B2704770B5044633
:10278000204600F005F80546FFF7F4FF70BD000095
:1027900010B58AB0044604EBC400054A02EB800180
:1027A000242201A8FDF7C5FF04980AB010BD00005F
:1027B0009C01002010B500220268134B1A40CC681F
:1027C0000B6823434C6923438C692343CC6923431F
:1027D0000C6A23434C6A23438C6A23434C6B234388
:1027E0008C6B23431A430260426922F00702D1E94D
:1027F0000B3423431A4342610B6943604B68836087
:102800008B68C36010BD00003F801CF041607047C2
:1028100000BFFEE770B504466FF0040001F0C2FF90
:10282000E11704EB5171C1F3C7010D4A1170E117B3
:1028300004EB5171CD104FF47A70454301200949E2
:1028400008804FF0E020006940F002004FF0E021E6
:10285000086108464561006940F00100086170BDEB
:102860008C0000208E00002010B54FF4807000F026
:102870001BF850B14FF4807000F00AF84FF48070EC
:1028800000F00CF8014800F01BFC10BDFC380120E2
:102890000149086070470000143C0140014908608C
:1028A00070470000143C014001460020034A1268B2
:1028B0000A400AB1012000E000207047143C0140AA
:1028C000002123498279002A3AD00A461268036817
:1028D0009A430B461A600A1D126803689A430B1D3F
:1028E0001A60027911440A6803681A430A60184A98
:1028F0000832126803689A43154B08331A601A1D90
:10290000126803689A43124B0C331A604279102AFA
:102910000ED11A1F126803681A430D4B08331A6050
:102920001A1D126803681A43094B0C331A600DE034
:102930000749427911440A6803681A430A6005E0AE
:10294000027911440A6803689A430A6070470000DC
:10295000003C014090ED020AB5EEC00AF1EE10FA1B
:1029600002DB90ED020A03E090ED020AB1EE400AAC
:10297000D0ED060AF5EEC00AF1EE10FA02DBD0ED5A
:10298000060A03E0D0ED060AF1EE600AB4EEE00AB2
:10299000F1EE10FA07D290ED030AD0ED020A30EE04
:1029A000600A80ED030A90ED000AD0ED030A30EED4
:1029B000200A80ED040A90ED040A704770B52DEDF1
:1029C000028B0446B0EE408A606940BB0120606122
:1029D0009FED220A84ED020A9FED200A84ED030A8E
:1029E00084ED008A84ED018A84ED048AB4F928001C
:1029F000002811DDB4F928108800FDF7E7FC2063FA
:102A0000002505E0206B00EB850080ED008A6D1C41
:102A1000B4F92800A842F5DCBDEC028B70BD94ED42
:102A2000000A84ED010A84ED008A94ED000AD4EDD9
:102A3000010A30EE600A84ED020A6069401C6061A0
:102A4000B4F92810606990FBF1F201FB1200216BD0
:102A500001EB800080ED008A00BFDDE70000000090
:102A6000F0B50A4600210023002400BF3DE0012507
:102A700005FA01F3156805EA03049C4234D10568A0
:102A80004F000326BE40B543056015794E00B540A2
:102A90000668354305601579012D02D01579022DA0
:102AA00016D185684F000326BE40B5438560557931
:102AB0004E00B540866835438560456801268E40E6
:102AC000B5434560456896798E40B6B2354345605A
:102AD000C5684F000326BE40B543C560D5794E009A
:102AE000B540C6683543C560491C1029BFD3F0BD49
:102AF000F0B5002300244D07ED0E02FA05F3CE10C9
:102B000000F1200555F826504E07F70E0F26BE405F
:102B1000B543CF1000F1200646F82750CE1000F143
:102B2000200555F8265045EA0304CE1000F1200593
:102B300045F82640F0BD0246002013690B400BB15A
:102B4000012000E0002070474183704701837047F7
:102B500030B502460C460B48018812B94FF6FF709B
:102B600030BD09E012F8013B81EA0300C0B2064D16
:102B700035F8100080EA2121201EA4F10104F1D1D2
:102B80000846EDE72801002028B9000830B50246C4
:102B9000FF2005E012F8014B84EA0003034CE05CDF
:102BA0000C1EA1F10101F5D130BD000027B80008CD
:102BB00070B504460D460020206100F035FE00F09F
:102BC000BBFDD5B1B1EE040A0C4880ED000A12E05D
:102BD000072095FBF0F0216991FBF0F0461C304690
:102BE00000F04AFD2069A84205DB9FED050A034875
:102BF00080ED000A00E0EBE700BF70BD9000002010
:102C0000CDCCCC3DC18402854385704770B52DED98
:102C10000A8B0446FE48B0F9080000EE100AB8EE30
:102C2000C00A9FEDFC1AC0EE010A9FEDFB0A20EEE0
:102C3000800A10EE105A284608F002FD41EC190BEC
:102C40009FEDF60B53EC102B07F054FF41EC180BE3
:102C500007F062FEF3490860ED48B0F90A0000EEA3
:102C6000100AF8EEC00A9FEDEB1A80EE810ADFED44
:102C7000EA0A20EE200A10EE105A284608F0E0FC7E
:102C800041EC190B9FEDE50B53EC102B07F032FFD5
:102C900041EC180B07F040FEE3490860DC48B0F94E
:102CA0000C0000EE100AB8EEC00A9FEDDA1AC0EE72
:102CB000010A9FEDD90A20EE800A10EE105A28462C
:102CC00008F0BEFC41EC190B9FEDD40B53EC102B1C
:102CD00007F010FF41EC180B07F01EFED349086007
:102CE000CB48B0F9000000EE100AB8EEC00ADFEDE4
:102CF000D00A80EE201ACF4880ED001AC448B0F9FF
:102D0000020000EE100AB8EEC00ADFEDC90A80EE3C
:102D1000201AC94880ED001ABD48B0F9040000EE41
:102D2000100AB8EEC00ADFEDC20A80EE201AC348CE
:102D300080ED001AD0ED002ABF4890ED002ABD4872
:102D4000D0ED001A084690ED001AB748D0ED000A01
:102D5000B44890ED000A00F071FDB94890ED000A0A
:102D6000D0ED000A20EE200AB648D0ED000A90ED22
:102D7000001A00EEC10AB448D0ED000A90ED001A26
:102D800000EEC10AB148D0ED000A90ED001A00EE45
:102D9000810A10EE101A084608F052FC41EC1B0B99
:102DA000A74890ED000AA748D0ED000A20EE200ABF
:102DB000A548D0ED000AA54890ED001A00EE810A62
:102DC000F0EE000A20EE200A10EE101A084608F075
:102DD00037FC41EC1C0BB0EE4B1AF0EE6B1AB0EE68
:102DE0004C0AF0EE6C0A04F0DFF9B0EE40AAF0EE07
:102DF00060AA9FED8A0B53EC102B51EC1A0B08F0D4
:102E000081F841EC190B9FED920B53EC102B07F05E
:102E100071FE41EC180B07F07FFD8F490860884870
:102E200090ED000A8848D0ED000A20EE200A85487F
:102E3000D0ED000A854890ED001A00EEC10AF0EED0
:102E4000000A20EE200A10EE101A084608F0F8FBDF
:102E500041EC1B0BB0EE4B0AF0EE6B0A03F088FE60
:102E6000B0EE40AAF0EE60AA9FED6C0B53EC102B75
:102E700051EC1A0B08F046F841EC190B9FED740B5E
:102E800053EC102B07F036FE41EC180B07F044FD15
:102E9000724908606A4890ED000AD0ED000A20EE01
:102EA000200A6848D0ED000A90ED001A00EE810A71
:102EB0006548D0ED000A90ED001A00EEC10A6348A3
:102EC000D0ED000A90ED001A00EEC10A10EE101AC3
:102ED000084608F0B5FB41EC1B0B5A4890ED000A80
:102EE0005948D0ED000A20EE200A5548D0ED000ADE
:102EF000564890ED001A00EE810AF0EE000A20EE2E
:102F0000200A10EE101A084608F09AFB41EC1C0B40
:102F1000B0EE4B1AF0EE6B1AB0EE4C0AF0EE6C0A03
:102F200004F042F9B0EE40AAF0EE60AA9FED3B0B30
:102F300053EC102B51EC1A0B07F0E4FF41EC190B8A
:102F40009FED430B53EC102B07F0D4FD41EC180B15
:102F500007F0E2FC42490860084690ED000A41484B
:102F6000FFF72CFD3F4890ED020ADFED3F0AB4EE7B
:102F7000E00AF1EE10FA08DD90ED030ADFED3B0AFE
:102F800030EE600A80ED030A11E0364890ED020A47
:102F9000DFED370AB4EEE00AF1EE10FA07D290ED59
:102FA000030ADFED320A30EE200A80ED030A3148D1
:102FB000006808F045FB41EC190B9FED2F0B53EC1B
:102FC000102B08F053FA41EC180B07F0A5FC294927
:102FD00008602448FFF7BEFCD4ED030A30EE200A57
:102FE0002448D0ED000A30EE200A84ED000A40F2B9
:102FF000A3612069884205D194ED000AB1EE400A30
:1030000084ED030A144890ED000AB1EE400A37E05F
:10301000D03801206F128341DA0F494000000000D0
:10302000008066404001002044010020480100204B
:10303000000080454C010020500100205401002078
:1030400094000020980000209C000020A000002098
:1030500000000040FB21094038010020340100201D
:103060003C01002068010020000096430000B443AA
:10307000000096C330010020A2201DC30886783FBF
:1030800084ED010A0C4890ED000A84ED020A94EDEB
:10309000010ABDEEC00A10EE100A00B2074908800E
:1030A00040F2A4612069884202DA2069401C206154
:1030B000BDEC0A8B70BD00003401002064010020CB
:1030C00010B504460E232C4A3B21D02000F0C6F850
:1030D000FF2801D1002010BD2748C07926498979F1
:1030E00040EA012000B22549C88023480079000247
:1030F000404221494979084300B2204988801E484E
:10310000407B1D49097B40EA012040421B49498D13
:10311000401A00B219498881174840781649097841
:1031200040EA012000B2154948801348C07812498E
:10313000897840EA012000B2104908800E48407AA0
:103140000D49097A40EA01200C49098D401A00B264
:103150000A4948810848C07A0749897A40EA01202B
:103160000649C98C401A00B2044908812046FFF77D
:103170004DFD0120AFE7000094350120D03801203B
:1031800000BFFEE710B5044600200F49086000F0BC
:10319000D9F8012000F01CF824B101200A490831B7
:1031A000086003E00020084908310860012000F0B1
:1031B0000FF801200449086000F00AF800200349D4
:1031C000C1F89C0210BD00009C8242420080424235
:1031D00010B5002106E0642200BF131EA2F1010217
:1031E000FBD1491C8142F6D310BD000001200349E8
:1031F000086000200249C1F8A0027047988242424C
:103200000080424270B5002400F086F80120FFF7EC
:10321000DFFF002516E000200E4908600220FFF7BE
:10322000D7FF01200C49C1F89C026006040E094832
:103230007838006808B1601CC4B20220FFF7C8FFEC
:10324000681CC5B2082DE6DB002002490860204654
:1032500070BD00009C824242008042422DE9F04154
:1032600007460E461446984600F084F8FF2805D11C
:1032700020A0FDF7DBF8FF20BDE8F081384600F024
:10328000F9F800F0CDF8FF2800D1F5E7304600F05E
:10329000F1F800F0C5F8FF2804D119A0FDF7C6F831
:1032A000FF20E9E700F066F8791CC8B200F0E2F808
:1032B00000F0B6F8FF2804D114A0FDF7B7F8FF20FE
:1032C000DAE7002508E0FFF79DFF20700020FFF7F8
:1032D00059FF641C681CC5B2A8F10100A842F2DCC9
:1032E000FFF790FF20700120FFF74CFF00F07EF801
:1032F0000020C1E76572726F7220370D0A0000006E
:103300006572726F7220390D0A0000006572726F6B
:10331000722032480D0A00001CB54FF40070009076
:1033200000208DF804008DF8060001208DF80700BC
:1033300003208DF8050069460148FFF791FB1CBD8D
:10334000001402401CB54FF40070009001208DF86D
:10335000040000208DF8060001208DF807000320EE
:103360008DF8050069460248FFF77AFB1CBD000096
:103370000014024010B5FFF7E5FF01201349086073
:103380001348D0F8240220B912A0FDF74FF8FF200F
:1033900010BD01200D4908390860FFF719FF002012
:1033A0000B49C1F8A40209488038006820B10CA07C
:1033B000FDF73CF8FF20EBE70120FFF709FF0020B5
:1033C00002490839086000BFE2E70000A4824242D7
:1033D000008042426572726F722031210D0A000036
:1033E0006572726F722032210D0A000010B5FFF76E
:1033F000A9FF0020084908600849C1F8A40201207B
:10340000FFF7E6FE012004490860FFF7E1FE012016
:103410000249C1F8A40210BD9C824242008042428F
:1034200010B50024FFF778FF012010490860FFF76E
:10343000CFFE01200E49C1F89C02FFF7C9FE0AE049
:10344000601C84B2322C03DDFFF7D0FFFF2010BDDB
:103450000520FFF7BDFE0548803800680028EFD141
:1034600002490839086000BFF1E70000A482424227
:103470000080424270B50446FFF764FF0020134904
:10348000086000251EE004F0800020B101200F49F3
:103490000831086003E000200C490831086060062C
:1034A000040E0120FFF794FE012008490860FFF791
:1034B0008FFE00200649C1F89C020120FFF788FE1C
:1034C000681CC5B2082DDEDB70BD00009C82424244
:1034D0000080424270B506460C461546FFF74AFF8B
:1034E000FF2804D116A0FCF7A1FFFF2070BD3046D5
:1034F000FFF7C0FFFFF794FFFF2804D113A0FCF7EC
:1035000095FFFF20F2E72046FFF7B4FFFFF788FFA3
:10351000FF2804D110A0FCF789FFFF20E6E728462A
:10352000FFF7A8FFFFF77CFFFF2804D10DA0FCF7F1
:103530007DFFFF20DAE7FFF759FF0020D6E7000004
:103540006572726F72203321000000006572726F25
:103550007220340D0A0000006572726F7220350D02
:103560000A0000006572726F7220360D0A000000BA
:103570000020014908707047040300201CB5012198
:10358000302000F0AFFF4FF40060009001208DF874
:10359000040000208DF8060003208DF805000120AE
:1035A0008DF8070069461048FFF75AFA4FF480403B
:1035B000009001208DF8040000208DF80600032003
:1035C0008DF8050001208DF8070069460748FFF7D0
:1035D00047FA4FF400610448FFF7B8FA4FF480410E
:1035E0000248FFF7B3FA1CBD00100240001402406D
:1035F00010B51E48007810B100F076F810BD1C48D8
:1036000000880B2190FBF1F201FB1200401C1849CD
:10361000088008460088032807DC16480088012136
:1036200001EB4000134908801AE011480088042883
:103630000CDB0F480088082808DC0E4800884FF68D
:10364000FF7101EA40000B49088009E00848007852
:10365000001F0121814007480088401A0549088061
:103660000448008800F01EF800BFC7E704030020EC
:10367000100300200E03002010B50446002C01DDCD
:10368000204601E000200446082801DA204600E038
:10369000082004460121A140491E88B200F002F82A
:1036A00010BD000010B504464FF4FF7020EA44013D
:1036B0000548FFF74BFA4FF6FF7000EA4401024855
:1036C000FFF742FA10BD000000180240034B1870CB
:1036D000034A11800122034B1A7070470503002032
:1036E000060300200403002010B506F0BFFE0F49BA
:1036F000088000240FE00E480078FFF7D3FFC821B0
:103700000A4805F0F3FF0020FFF7CCFFC821074867
:1037100005F0ECFF641C074800888442EBDB4FF4A3
:103720007A71024805F0E2FF10BD00000803002096
:10373000050300200603002010B503221921D02024
:10374000FFF7C8FEFF2800D110BD0A2004F0F4FDE9
:1037500001223821D020FFF7BDFEFF2800D1F3E77A
:103760000020F1E708B500200090FFF73FFD01239E
:103770006A467521D020FFF771FD50B99DF8000011
:10378000702801D0FF2008BD9DF800002549088061
:1037900001E0FF20F7E701226B21D020FFF79AFE1E
:1037A000FF2800D1EFE701221A21D020FFF792FE77
:1037B000FF2800D1E7E718221B21D020FFF78AFE5F
:1037C000FF2800D1DFE710221C21D020FFF782FE66
:1037D000FF2800D1D7E701221D21D020FFF77AFE74
:1037E000FF2800D1CFE702223721D020FFF772FE59
:1037F000FF2800D1C7E700223821D020FFF76AFE5A
:10380000FF2800D1BFE700226A21D020FFF762FE27
:10381000FF2800D1B7E74FF4FA7004F08DFD0020C7
:10382000B1E70000A400002010B502E0052004F07C
:1038300083FDFFF797FFFF28F8D010BD00B52DEDF1
:10384000108B81B0F0EE404AB0EE605AF0EE415A73
:10385000F0EE613AB0EE423AB0EE624AE94890EDDD
:10386000000AB1EE400A20EE240AE748D0ED000A33
:1038700000EEC50AE548D0ED000A00EEE50AF6EED6
:10388000000A20EE200AF0EE40EAE14890ED000A3E
:1038900020EE240ADC48D0ED000A00EEA50ADB4841
:1038A000D0ED000A00EEC50AF6EE000A20EE200A6E
:1038B000B0EE40FAD64890ED000A20EE050AD14855
:1038C000D0ED000A00EEE50AD048D0ED000A00EE87
:1038D000A40AF6EE000A20EE200AF0EE40FACC48E8
:1038E00090ED000A20EE250AC648D0ED000A00EE51
:1038F000850AC548D0ED000A00EEE40AF6EE000A9B
:1039000020EE200A8DED000AF5EEC03AF1EE10FA35
:1039100009D1B5EEC03AF1EE10FA04D1B5EEC04AC5
:10392000F1EE10FA7DD063EEA30A43EE030A44EEF3
:10393000040AB0EE600A04F05FFDF0EE402A23EEC8
:10394000A20AF0EE403A23EE220AB0EE403A24EE0C
:10395000220AB0EE404AAE4890ED000AF0EE000AAE
:1039600020EE20AAA74890ED000AF0EE000A60EED3
:1039700020AAA54890ED000AF0EE000A20EE20BA39
:10398000A24890ED000AF0EE000A60EE20BAA048CE
:1039900090ED000AF1EE000A20EE20CA994890ED61
:1039A000000AF1EE000A60EE208A974890ED000AC6
:1039B000F1EE000A20EE209A924890ED000AF2EE15
:1039C000000A60EE20CA904890ED000AF2EE000A6C
:1039D00020EE20DA8E4890ED000AD0ED000A60EE6D
:1039E00020DA884890ED000AD0ED000A20EE206A27
:1039F000854890ED000AD0ED000A60EE206A834809
:103A000090ED000AD0ED000A20EE20EA2CEE260A06
:103A10000BEE230A0CEE060A0AEEC30AF0EE409AF9
:103A200000E087E028EE8E0A0BEEE30AF1EE000AD2
:103A30006DEEA00A734890ED001A00EE810A0AEEBE
:103A4000430A30EE680A0CEE860A0CEEA60A08EE6F
:103A5000840AB0EE407AB1EE000A2DEE800A6A4880
:103A6000D0ED000A20EE200A0AEE230A09EE0E0A23
:103A70000BEEC30A30EE490A0DEE060A0DEE260AD9
:103A800009EE040AF0EE407AB1EE000A26EE000AD2
:103A90005E48D0ED000A20EE200A0AEEE30AF1EEBD
:103AA000000A66EEA00A90ED001A00EE810A0BEE05
:103AB000430AB0EE408A69EEA90A47EE070A47EECC
:103AC000A70A48EE080AB0EE600A04F095FCF0EE92
:103AD000402A29EEA20AF0EE409A27EE220AB0EE22
:103AE000407A27EEA20AF0EE407A28EE220AB0EEE3
:103AF000408A4848D0ED000AB0EE6E0A00EEE90AAE
:103B0000F0EE40EAD0ED000AB0EE4F0A00EEC70A30
:103B1000B0EE40FAD0ED000AB0EE6F0A00EEE70A10
:103B2000F0EE40FA9DED000AD0ED000A00EEC80A62
:103B30008DED000A364890ED000ADFED370A0EEEF3
:103B4000A00A80ED000A2F4890ED000ADFED320A4E
:103B50000FEE200A80ED000A2B4890ED000ADFED01
:103B60002E0A0FEEA00A80ED000A2848D0ED000AC8
:103B70009DED000A9FED281A40EE010AC0ED000AF3
:103B80002348D0ED000A90ED001A60EE810A1D482E
:103B900090ED001AD0ED001A41EE210A1A4890ED7E
:103BA000001AD0ED001A41EE210A184890ED001AD3
:103BB000D0ED001A41EE210AB0EE600A04F01CFCC0
:103BC000F0EE402A124890ED000A20EE220A80ED25
:103BD000000A0C4890ED000A20EE220A80ED000A4F
:103BE000094890ED000A20EE220A80ED000A0748FD
:103BF00090ED000A20EE220A80ED000A01B0BDEC33
:103C0000108B00BD980000209C000020A000002028
:103C100094000020900000206F12833B00BFFEE75D
:103C20004FF0FF3303834383438080ED080A4174E0
:103C300080F828207047FDEEC00A10EE901A09B2F5
:103C4000418301218183891E418070472DE9F04322
:103C50002DED108B83B004460D466878297840EA34
:103C6000012007B2E878A97840EA012006B2687915
:103C7000297940EA01200FFA80F995F806809FED36
:103C8000740AB0EE408A06F0F1FBE0810120207456
:103C90002780E680484607F0E2F841EC1B0B9FEDD9
:103CA0006D0B53EC102B06F025FF41EC1A0B9FED2A
:103CB0006B0B53EC102B07F025F941EC190B06F0B8
:103CC0002BFEA06094ED080A10EE101A084607F0CB
:103CD000B7FC41EC1D0B304607F0C1F89FED610BBE
:103CE00053EC102BCDE900019DED000B51EC100BB6
:103CF00007F008F941EC1F0B9FED5C0B53EC102B08
:103D000006F0F8FE41EC1E0B53EC1D2B06F0F2FE04
:103D100041EC1C0B9FED570B53EC102B06F02EFEC5
:103D200041EC1A0B94ED020AF3EE080A20EE200A89
:103D3000B5EEC00AF1EE10FA06DD94ED020AF3EEDC
:103D4000080A20EE200A01E09FED410A10EE101A49
:103D5000084607F075FC41EC1B0B53EC1A2B06F0E0
:103D6000C9FE41EC190B06F0D7FD6062A4F80C8087
:103D7000607C002866D0B4F90200401CC0B12088E5
:103D80006188401A00B2A080B4F904003B4988421F
:103D900004DA608A401C00B2608209E0B4F90400D1
:103DA00041F26801884203DD608A401E00B26082F1
:103DB000B4F9000000EE100AB8EEC00A9FED301A08
:103DC000C0EE010A608A4FF4B47110FB01F000EEFE
:103DD000100AB8EEC00A9FED2B1A00EE810AD4ED4E
:103DE000080A80EE208AA08B00BBB4F91800401CA2
:103DF000A0B1B4F9180000EE100AF8EEC00A9FED69
:103E0000201A80EE810ADFED1F0A20EE200ABDEEA7
:103E1000C00A10EE100A00B2608305E0BDEEC80AC9
:103E200010EE100A00B260830120A083B4F91A00DA
:103E300000EE100AB8EEC00A38EE400A84ED050A1A
:103E40002088608003B0BDEC108BBDE8F0830000DB
:103E500000000000000000000000D0400000000052
:103E6000000034404AD8124DFB21094000000000F8
:103E700000003E40000000000000004098EFFFFFFF
:103E8000000000460000B44300BFFEE770B500210B
:103E900000230F22C4781CB3174C246804F4E06498
:103EA000C4F5E064C4F30721C1F10404E3B20A419C
:103EB00044789C40E1B28478144021430C07210EE1
:103EC0000E4C05786155047804F01F050124AC40C0
:103ED00005786D11AD0005F1E025C5F8004109E058
:103EE000047804F01F050124AC40054D06787611D6
:103EF00045F8264070BD00000CED00E000E400E055
:103F000080E100E002490143024A1160704700006D
:103F10000000FA050CED00E0B0EE401A90ED050A45
:103F200080ED070A80ED051AC0ED060A90ED0D0A36
:103F300080ED0E0A90ED050AD0ED061A30EE610A0A
:103F400080ED080A90ED000AD0ED081A20EE210A53
:103F500080ED0A0A90ED0B0AD0ED011A90ED082AC7
:103F600001EE820A80ED0B0A90ED0B0AD0ED041AE7
:103F7000F1EE611AB4EEE10AF1EE10FA02DD90ED15
:103F80000B0A05E090ED040AB1EE400A80ED0B0A41
:103F9000D0ED041AB4EEE10AF1EE10FA02D290ED7F
:103FA0000B0A01E090ED040A80ED0B0A90ED080A7F
:103FB000D0ED091A30EE610AD0ED021A20EE210A86
:103FC00080ED0C0A90ED0A0AD0ED0B1A30EE210AB2
:103FD000D0ED0C1A30EE210A80ED0D0A90ED0D0A9D
:103FE000D0ED031AF1EE611AB4EEE10AF1EE10FA27
:103FF00002DD90ED0D0A05E090ED030AB1EE400AF6
:1040000080ED0D0AD0ED031AB4EEE10AF1EE10FADC
:1040100002D290ED0D0A01E090ED030A80ED0D0A49
:1040200090ED080A80ED090A90ED0D0A7047000036
:1040300080ED000AC0ED010A80ED021AC0ED031AFE
:1040400080ED042ADFED142AC0ED052ADFED122AE7
:10405000C0ED072ADFED102AC0ED062ADFED0E2A9B
:10406000C0ED082ADFED0C2AC0ED092ADFED0A2A8F
:10407000C0ED0A2ADFED082AC0ED0B2ADFED062A83
:10408000C0ED0C2ADFED042AC0ED0D2ADFED022A77
:10409000C0ED0E2A7047000000000000024600211B
:1040A00000BF0DE0C1EB01100C4B03EB400000889A
:1040B000904204D1C1EB011003EB40007047491C52
:1040C000074800788142EDDB05480078401EC0EBD0
:1040D0000010024B03EB4000F0E700005F030020FC
:1040E0000107002030B50A4600210023002480F893
:1040F000914180F89041C0F89A21C0F805200E4CFB
:10410000648FBCB91F240D4D2C7000BF0EE0C1EBB5
:104110000114094D05EB4404A383C1EB011405EB25
:10412000440464881C44A3B24C1CA1B2034C247800
:10413000A142ECDB30BD00005F030020010700203E
:104140002DE9FF5F04460F4600260025BA46029778
:10415000012084F891013846FFF7A0FF8346BBF8A1
:104160001C000390BBF80280BBF80000B84203D0EB
:10417000681E04B0BDE8F09FB7F5704F04DB40F255
:10418000013AC7F30B000290A5222846691C8DB2A4
:1041900004F10D010A542846691C8DB204F10D0189
:1041A00001F800804FEA28222846691C8DB204F1EC
:1041B0000D010A5429466A1C95B204F10D028818B3
:1041C0000178491C01702078022809D10421104689
:1041D000FEF7DCFC29466A1C95B204F10D0250542E
:1041E0002846691C8DB204F10D0101F800A04FEAC8
:1041F0002A222846691C8DB204F10D010A542E466C
:1042000005E0002104F10D008155701C86B2802E5E
:10421000F7DBD4F89A11039808440190002609E0CE
:104220000198825D2846691C8DB204F10D010A5483
:10423000701C86B24645F3DB08F1070104F10D005E
:10424000FEF786FC81462846691C8DB204F10D01FB
:1042500001F800904FEA29222846691C8DB204F12A
:104260000D010A5408460090002609E004F10D00F3
:10427000815D009801700098401C0090701C86B20F
:10428000AE42F3DB207CA4F88D000FFA88F070E7D3
:1042900070B504460D46012084F8910194F8900110
:1042A0000B2870D2DFE800F0061B29455F7684BE3C
:1042B000D3E7EF00A52D0ED1B4F8A00158B1B4F8A2
:1042C0009211481CA4F8920104F58870455401200D
:1042D00084F8900102E00020A4F8920100E1A4F823
:1042E0009451B4F89211481CA4F8920104F5887016
:1042F0004554022084F89001F2E004F5C974608806
:1043000040EA052060802188481C2080A4F5C974FB
:1043100004F588704554B4F89401722803DA032038
:1043200084F8900104E0002084F89001A4F8920140
:10433000D6E0A4F89651B4F89211481CA4F8920162
:1043400004F5887045542078022804D0D4F8010080
:10435000B0F5A06F03D1042084F8900102E005209D
:1043600084F89001BCE0B4F89211481CA4F89201C2
:1043700004F588704554052102F0CCFB20B10520DE
:1043800084F8900105E0A5E0002084F89001A4F8ED
:104390009201A5E0A4F89851B4F89211481CA4F831
:1043A000920104F588704554062084F8900197E046
:1043B00004F5C974E08840EA0520E0802188481CA3
:1043C0002080A4F5C97404F5887045540934B4F804
:1043D0008F01FFF763FE2060B4F88D01216808812A
:1043E00006F044F82168C86020680088B4F88F118E
:1043F000093C884205D0002084F89001A4F892017D
:104400006EE0D4F80900808818B1072084F8900184
:1044100007E0B4F89401801CA4F89E010A2084F8F7
:1044200090015DE0B4F89211481CA4F8920104F5E3
:1044300088704554B4F89211B4F89401093081425F
:1044400003D1082084F8900100E049E000BFB4F8EF
:10445000940100F1090104F5887002F03FFB18B1E6
:10446000092084F8900105E0002084F89001A4F868
:10447000920135E000BFD4F89A21D4F809309B8B23
:10448000D118002007E017E0C21D04F588739A5C7C
:104490000A54421C90B2B4F894218242F4DCD4F85D
:1044A0000920D288521CD4F80930DA80002284F81E
:1044B0009021A4F8922113E0B4F89E01401EA4F8C4
:1044C0009E01B4F89E0120B9002084F89001A4F860
:1044D000920105E0002084F89001A4F8920100BF49
:1044E00000BF70BD29B1064A12680243044B1A602E
:1044F00004E0034A12688243014B1A6070470000CF
:104500003038024029B1064A12680243044B1A604F
:1045100004E0034A12688243014B1A6070470000AE
:104520004038024029B1064A12680243044B1A601F
:1045300004E0034A12688243014B1A60704700008E
:1045400044380240F0B50021002200240225002654
:104550000223324F3F6807F00C0121B1042905D036
:10456000082937D105E02E4F076036E02D4F076050
:1045700033E02A4F3F1F3F68C7F38056274F3F1F46
:104580003F6807F03F036EB1264FB7FBF3F7DFF844
:104590008CC0ACF1040CDCF800C0CCF3881C07FB29
:1045A0000CF40CE01E4FB7FBF3F7DFF870C0ACF172
:1045B000040CDCF800C0CCF3881C07FB0CF4174F8C
:1045C0003F1F3F68C7F301477F1C7D00B4FBF5F731
:1045D000076002E0124F076000BF00BF0F4F3F6847
:1045E00007F0F0010909104F7A5C0768D74047606F
:1045F0000A4F3F6807F4E051890A0B4F7A5C47681D
:10460000D7408760054F3F6807F46041490B064F6C
:104610007A5C4768D740C760F0BD000008380240A8
:104620000024F400001BB700000000204FF221110D
:10463000018070474FF222210180704730B500227F
:104640008B071C0F0F2303FA04F20B4B8C1053F84B
:1046500024309343084C8D1044F8253023468C10A9
:1046600053F824308C07240F00FA04F42343024C3F
:104670008D1044F8253030BD083801404FF220112C
:10468000018070470CB500200190009041480068FF
:1046900040F480303F49086000BF3E48006800F4A5
:1046A000003000900198401C0190009818B90198C2
:1046B000B0F5A04FF1D13748006800F4003010B1D8
:1046C0000120009001E0002000900098012860D1B6
:1046D00030484030006840F080502E49403108603A
:1046E0002D48006840F440402B49086029480830B4
:1046F00000682849083108600846006840F4004016
:1047000008600846006840F4A05008602348091F6C
:104710000860081F006840F08070091F086000BF33
:104720001C48006800F000700028F9D01A480068A2
:1047300040F480301849086000BF1748406800F412
:1047400080300028F9D01448006840F40030124945
:10475000086000BF1048406800F400300028F9D01D
:1047600040F205700E4908600A480830006820F0E1
:1047700003000849083108600846006840F002005C
:10478000086000BF03480830006800F00C000828EB
:10479000F8D10CBD00380240007000400C5A4007B0
:1047A000003C0240042808D14FF0E021096941F0A3
:1047B00004014FF0E022116107E04FF0E0210969A8
:1047C00021F004014FF0E0221161704710B505F0AF
:1047D0003DFE012801D005F0FFFA10BD10B51548C7
:1047E000006840F47000134908601348006840F006
:1047F00001001149086000200F49083108600E4887
:1048000000680E4908400C4908600D48091D086001
:10481000081F006820F48020091F08600020064956
:104820000C310860FFF72EFF4FF00060014980391E
:10483000086010BD88ED00E000380240FFFFF6FE82
:104840001030002410B50121880700F03EF860B157
:1048500006480068401C054908600121880700F0EF
:1048600016F80121880700F00FF810BDD4070020CA
:1048700021B1028842F08002028004E002884FF6F3
:104880007F731A4002807047CA4302827047CA434E
:104890000282704721B1028842F00102028004E0E6
:1048A00002884FF6FE731A400280704731B1B0F8AB
:1048B000442042F40042A0F8442005E0B0F844202F
:1048C000C2F30E02A0F84420704730B50246002023
:1048D00000230024158A05EA0103958905EA0104ED
:1048E00013B10CB1012000E0002030BD1AB1838962
:1048F0000B43838102E083898B43838170470000EF
:1049000070B5002400220023058C4FF6FE7635405A
:104910000584028C8388048B4FF68F752C40B51E5E
:104920002C400D882C43751E2A408D892A434D88C2
:104930002A43104DA84202D00F4DA84213D14FF682
:10494000F7752A40CD892A434FF6FB752A408D889A
:104950002A434FF6FF652B404FF6FF552B400D8A3B
:104960002B434D8A2B43838004838D6845630284E7
:1049700070BD000000000140000401400A46002113
:10498000018B4FF6F7731940114301837047000004
:1049900070B5002400220023058C4FF6EF763540D9
:1049A0000584028C8388048B48F6FF752C404FF6F3
:1049B000FF452C400D884FF6FF7606EA05252C436F
:1049C0004FF6DF752A408D8906EA05152A434D8882
:1049D00006EA05152A43154DA84202D0144DA842F7
:1049E0001DD14FF67F752A40CD894FF6FF7606EA36
:1049F00005152A434FF6BF752A408D8806EA05152E
:104A00002A434FF6FF352B404FF2FF752B400D8A9E
:104A100006EA85052B434D8A06EA85052B438380EC
:104A200004838D688563028470BD0000000001402E
:104A3000000401400A460021018B4FF2FF73194028
:104A40004FF6FF7303EA0223194301837047000006
:104A500070B5002400220023058C4FF6FF66354018
:104A60000584028C8388848B4FF68F752C404FF61B
:104A7000FC752C400D882C434FF6FF552A408D893C
:104A80004FF6FF7606EA05252A434D8806EA0525F6
:104A90002A43154DA84202D0144DA8421DD14FF211
:104AA000FF752A40CD894FF6FF7606EA05252A4391
:104AB0004FF6FF352A408D8806EA05252A434EF633
:104AC000FF752B404DF6FF752B400D8A06EA051544
:104AD0002B434D8A06EA05152B43838084838D681A
:104AE000C563028470BD0000000001400004014065
:104AF0000A460021818B4FF6F773194011438183D9
:104B00007047000070B5002200230024058C4EF68B
:104B1000FF7635400584038C8488828B48F6FF75C8
:104B20002A404FF6FF452A400D884FF6FF7606EAE9
:104B300005252A434DF6FF752B408D8906EA05357C
:104B40002B434D8806EA05352B430A4DA84202D077
:104B5000094DA84208D14BF6FF752C400D8A4FF63F
:104B6000FF7606EA85152C43848082838D68056470
:104B7000038470BD00000140000401400A4600218A
:104B8000818B4FF2FF7319404FF6FF7303EA022344
:104B9000194381837047000000220288184B984215
:104BA0000ED0184B98420BD0B0F1804F08D0164B66
:104BB000984205D0154B984202D0154B984204D12B
:104BC0004FF68F731A404B881A43124B984207D006
:104BD000114B984204D04FF6FF431A400B891A43F9
:104BE00002804B68C3620B880385054B984202D054
:104BF000044B984201D18B7A03860123838270474C
:104C00000000014000040140000400400008004092
:104C1000000C0040001000400014004008B505F0F2
:104C200025FC009005E0FEF7E3FCC821684604F08F
:104C30005DFDF8E72DED028B82B005F017FC0190C9
:104C40009FED0B0AB0EE408A9FED0A0A28EE000A9B
:104C5000BDEEC00A10EE104A08E007480178074888
:104C6000FCF72AFE214601A804F040FDF5E700000C
:104C70000AD7233C00007A44E2070020A044012028
:104C80002DED108B90B005F0F1FB0E909FEDF80A22
:104C9000F0EE408A9FEDF70A28EE800ABDEEC00ACA
:104CA00010EE105A9FEDF40AF0EE40BA9FEDF20AB2
:104CB000B0EE40DA9FEDF00AB0EE40EA9FEDEE0A6A
:104CC0008DED0D0A9FEDEC0AF0EE40AA00BF182111
:104CD00006A8FBF78AFD00BF9FEDE70A8DED050AE8
:104CE0009FEDE50A8DED040A9FEDE30AB0EE408AE0
:104CF0000026B5EE000AB0EE40BAB0EE4B9A0124A1
:104D000000BF9FEDDE2ADFEDDE1A9FEDDB1ADFED3F
:104D1000DA0AB7EE000ADB48FFF78AF99FEDD62AD8
:104D2000DFEDD71A9FEDD41ADFEDD30AB2EE040AF5
:104D3000D548FFF77DF99FEDD52ADFEDD51A9FED18
:104D4000CE1ADFEDCD0AB3EE040AD248FFF770F9B0
:104D50009FEDCE2ADFEDCE1A9FEDC71ADFEDC60A12
:104D6000B3EE040ACC48FFF763F99FEDC82ADFEDE4
:104D7000C81A9FEDC11ADFEDC00AB3EE040AC74896
:104D8000FFF756F99FEDC12ADFEDC11A9FEDBA1A60
:104D9000DFEDB90AB3EE040AC148FFF749F9C1488B
:104DA000FDF74EFA9FEDB40AF0EE409A9FEDB20A7D
:104DB000B0EE40FA9FEDB00A8DED030A9FEDAE0A0A
:104DC000B0EE40AA9FEDAC0AF0EE40FA9FEDAA0AC1
:104DD0008DED020AB1E3B448D0ED05DAB0F9060072
:104DE00000EE100AB8EEC00ADFEDB00A60EE20EA6D
:104DF000AF48D0F84B000590AD48B0F84F0000EE3A
:104E0000100AB8EE400A8DED040AAA48007828B1CD
:104E1000B7EE080A9B4880ED000A04E09FEDA60A61
:104E2000984880ED000AA548007800B100E000BF76
:104E3000A2480078012822D101269FEDA10AB0EEF8
:104E400040BA39EE280AB0EE409AB5EEC08AF1EECB
:104E500010FA04D19FED9B0AB0EE408A95E0B4EEC3
:104E6000CB9AF1EE10FA09DB9FED970A38EE000AB3
:104E7000B0EE408A9FED800AB0EE409A85E08F4800
:104E80000078022822D101269FED900AB0EE40BAA8
:104E900039EE280AB0EE409AB4EECB9AF1EE10FA51
:104EA00073DBFBF759FA282190FBF1F201FB1200AA
:104EB000323000EE100AB8EEC00A30EE080AB0EE4A
:104EC000408A9FED6D0AB0EE409A5EE07B48007824
:104ED000032809D10126DFED7E0AB0EE480A00EE74
:104EE000A80AB0EE408A50E074480078042827D120
:104EF00001269FED780AB0EE40BA39EE280AB0EEEE
:104F0000409AB5EEC08AF1EE10FA04D19FED6D0A19
:104F1000B0EE408A39E0B4EECB9AF1EE10FA34DB11
:104F20005A2104FB01F000EE100AB8EEC00A38EE78
:104F3000400AB0EE408A604244B29FED4F9A24E0AE
:104F40005E480078052809D10126DFED630AB0EE3E
:104F5000480A00EEA80AB0EE408A16E057480078EA
:104F6000062809D10126DFED5D0AB0EE480A00EE01
:104F7000A80AB0EE408A08E01EB1002600204A4987
:104F800048829FED3D0AB0EE408AF0EE6D0AB0EE29
:104F9000480A3C48FEF7C0FF3A48D0ED0D0AB0EE93
:104FA000600AF0EE6E0A3848FEF7B6FF9FED320A4F
:104FB000F0EE40BA9FED300AB0EE40DA9FED2E0AD7
:104FC000B0EE40EA46480078012845D14548B0F99E
:104FD0000400404200EE100AB8EEC00ADFED420ABB
:104FE00080EE201A11EE107A384606F029FB41ECCB
:104FF0001C0B9FED3E0B53EC102B05F083FFCDE90E
:1050000000019DED000B51EC100B05F085FC0BEE43
:10501000900A3448B0F9060000EE100AB8EEC00A53
:10502000DFED310A80EE201A11EE107A384606F0D4
:1050300007FB41EC1C0B9FED2D0B53EC102B05F0E7
:1050400061FFCDE900019DED000B51EC100B05F067
:1050500063FC0DEE100A4BE1214800780228FAD1DA
:10506000F5EEC09AF1EE10FA44DDB0EE690A43E0C5
:105070000AD7A33B00007A44000000000000C842A9
:1050800000006144103801204C3801200000964493
:105090000080BB45A8390120E4390120203A0120D5
:1050A0005C3A0120303901209C3601204F77D63DF3
:1050B000103B0120DF0700206666A63FE1070020C5
:1050C0006666E63E000034420000B4429A99993E7A
:1050D0000000E143CDCCCC3E0000964300808E43DF
:1050E000D80700209C380120000025440000000063
:1050F000000034401FED200AF7EE000AB4EEE00A8B
:10510000F1EE10FA0AD2F5EEC09AF1EE10FA02DDD5
:10511000F0EE690A04E05FED280A01E0F7EE000A0C
:105120001FED0F0A30EE4F1AB0EE4F0A00EE810A63
:105130008DED030A19EE900A06F082FA41EC1C0B81
:105140009FEDFE0B53EC102B05F0A0FE06D89FED53
:10515000FD0A39EE800AF0EE409A19E019EE900A45
:1051600006F06EFA41EC1C0B9FEDF40B53EC102B88
:1051700006F06EF80CD2B7EE000AF4EEC09AF1EE2B
:1051800010FA05D29FEDF00A39EE800AF0EE409A4F
:10519000B5EEC0AAF1EE10FA02DDB0EE4A0A01E067
:1051A0001FED4B0AF7EE000AB4EEE00AF1EE10FA3A
:1051B0000AD2B5EEC0AAF1EE10FA02DDF0EE4A0A0C
:1051C00004E05FED530A01E0F7EE000A1FED3A0A32
:1051D00030EE6F1AB0EE6F0A00EE810A8DED020A12
:1051E0001AEE100A06F02CFA41EC1C0B9FEDD30BC3
:1051F00053EC102B05F04AFE06D89FEDD40A3AEE88
:10520000000AB0EE40AA19E01AEE100A06F018FAE9
:1052100041EC1C0B9FEDC90B53EC102B06F018F85A
:105220000CD2B7EE000AB4EEC0AAF1EE10FA05D225
:105230009FEDC40A3AEE000AB0EE40AAC4480078D6
:10524000C0F38000C2490978C1F3C001401A00EEE2
:10525000100AF8EEC00A9DED030A20EE800A1FED49
:105260005E1AC0EE010AB2EE000A20EE800AF0EEED
:1052700040BAB748007800F00100B5490978C1F399
:105280004001401A00EE100AF8EEC00A9DED020A35
:1052900060EE800A1FED6C1A80EE810AF2EE080AB9
:1052A00020EE200AB0EE40DAA948007800F00100B4
:1052B00060B9A7480078C0F3400038B91FED920AE2
:1052C000B0EE40AA1FED940AF0EE40FAA048007834
:1052D000C0F3800060B99E480078C0F3C00038B9C0
:1052E0001FED9B0AF0EE409A1FED9D0AB0EE40FACA
:1052F0009848006800EE100A30EE2B0AF0EE40BA33
:105300009448406800EE100A30EE0D0AB0EE40DA24
:105310001BEE900A06F094F941EC1C0B9FED8E0BEE
:1053200053EC102B05F0B2FD2ED21DEE100A06F044
:1053300087F941EC1C0B9FED880B53EC102B05F00B
:10534000A5FD21D21EEE100A06F07AF941EC1C0BE5
:105350009FED830B53EC102B05F098FD14D2B7EEA4
:10536000000A814880ED010AB7EE000A7F4880ED0F
:10537000010AB7EE000A7E4880ED010AB7EE000A86
:105380007C4880ED010A13E01FEDC50A764880EDE8
:10539000010A1FEDC70A754880ED010A1FEDCA0A10
:1053A000734880ED010A1FEDCC0A724880ED010AB6
:1053B000F5EEC0AAF1EE10FA02DDB0EE6A0A01E0E5
:1053C0001FEDD30AF7EE000AB4EEE00AF1EE10FA90
:1053D0000AD2F5EEC0AAF1EE10FA02DDF0EE6A0A8A
:1053E00004E05FEDDB0A01E0F7EE000A1FEDDE0AE4
:1053F0003EEE401A1FEDE00A00EE810A8DED0D0A27
:10540000B7EE000AF4EEC0AAF1EE10FA05D29FED55
:105410004E0A3AEE800AF0EE40AA9DED0D1AF0EE2B
:105420004D0AB0EE6B0A5448FDF79DF8B0EE6D0AD8
:105430005148FCF7CBFE5048FCF76AFE4F48007815
:1054400001280FD09FED4E0A4B48FDF715F8F0EEFE
:10545000681A9DED041ADDED050A9DED0C0A46481B
:10546000FCF730FF4748B0F9060001EE100AB8EE2D
:10547000C11A5FEDF21A21EE211AF0EE410A3E4800
:10548000B0F9000001EE100AB8EEC11AB0EE410A00
:105490003548FEF741FD3C48B0F9060001EE100A20
:1054A000B8EEC11ADFED391A21EE211AF0EE410AE9
:1054B0003148B0F9020001EE100AB8EEC11AB0EEA0
:1054C000410A2A48FEF728FD3148B0F9060001EEEE
:1054D000100AB8EEC11ADFED2D1A21EE211AF0EEF6
:1054E000410A2548B0F9040001EE100AB8EEC11ACD
:1054F000B0EE410A1E48FEF70FFD2648B0F906003F
:1055000001EE100AB8EEC11ADFED201A21EE211AC1
:10551000F0EE410A1848B0F9060001EE100AB8EEA4
:10552000C11AB0EE410A1348FEF7F6FC0E4890EDA2
:105530000D0A1148D0ED1B0A2EE067E000000000C4
:105540000000E03F6F12033B6F12833A6F12833B00
:10555000A8380120B13501209A9999999999B93FB4
:10556000333333333333D33FA8390120E4390120B7
:10557000203A01205C3A012030390120E407002064
:1055800000004844C0350120443601204F77D63D05
:1055900018360120EC35012020EE200ABDEEC00AAD
:1055A00010EE100A00B21A4948851A4890ED0D0A0B
:1055B0001948D0ED1B0A20EE200ABDEEC00A10EEFD
:1055C000100A00B215494885154890ED0D0A124899
:1055D000D0ED1B0A20EE200ABDEEC00A10EE100A24
:1055E00000B210494885104890ED0D0A0A48D0EDE8
:1055F0001B0A20EE200ABDEEC00A10EE100A00B20F
:105600000A49488529460EA804F070F8FFF7E3BB65
:10561000C0350120E4390120303901204436012011
:10562000203A0120183601205C3A0120EC35012097
:1056300008B504F01BFF0090A5E05348407A02280B
:1056400004D15148807A022800D100E001204F495E
:10565000087008460078012842D14B48407A01285A
:1056600005D14948807A032801D1012000E00020BB
:10567000474908700020474908704348407A02288B
:1056800004D14148807A012800D100E0002042493D
:1056900008703D48407A022805D13B48807A0328AB
:1056A00001D1012000E000203C4908703648407AD2
:1056B000032805D13448807A032801D1012000E075
:1056C0000020374908703048407A012804D12E481C
:1056D000807A012800D100E00020324908704EE0B5
:1056E0002A48007802284AD100202F4908702F4804
:1056F0008079294908702D48C0792D4908702D48B6
:105700000078C0F38010254908702A480088C0F34B
:1057100000202349087027480088C0F3C02018B132
:1057200000201C49087007E022480088C0F30030C0
:1057300010B10020174908701E480088C0F34020AF
:105740001D4908701B480088C0F3403018B105207F
:105750001A49087007E017480088C0F3803010B17C
:1057600007201649087013480078C0F3C010144988
:10577000087010480078C0F3001005490870052132
:10578000684603F0B3FF58E79C380120D807002093
:10579000E4070020D9070020DA070020DE070020F8
:1057A000DB070020E2070020E0070020E6070020DA
:1057B000DF070020A8380120DC070020E1070020D7
:1057C000DD0700202DED028B82B004F04FFE01902A
:1057D0009FED3F0AB0EE408A9FED3E0A28EE000A98
:1057E000BDEEC00A10EE107A0024A0469FED3A2AC2
:1057F000DFED3A1A9FED3A1ADFED390AB1EE080AE9
:105800003848FEF715FC9FED342ADFED341A9FED82
:10581000341ADFED330AB1EE080A3348FEF708FC0C
:1058200055E03248007828B14FF400513048FDF778
:105830008DF904E04FF400512D48FDF785F92D480E
:105840000088C0F38025B5EB080005D514B941F2F6
:10585000707000E000200446A84666422648B0F971
:10586000060000EE100AB8EEC00AF0EE400A00EEA4
:10587000106AB8EEC00A1B48FEF74EFB1F48B0F98D
:10588000060000EE100AB8EEC00AF0EE400A00EE84
:10589000104AB8EE400A1448FEF73EFB114890ED5E
:1058A0000D0ABDEEC00A10EE100A00B2124948857A
:1058B0000D4890ED0D0ABDEEC00A10EE100A00B2C0
:1058C0000E494885394601A803F010FF00BFA8E73C
:1058D000CDCC4C3D00007A44000096440000804648
:1058E000000000000444012040440120D9070020AA
:1058F00000180240A83801203443012060430120F1
:105900002DED068B82B004F0B1FD01909FEDA70A4A
:10591000B0EE408A9FEDA60A28EE000ABDEEC00A4E
:1059200010EE106A002400BF00BF00BF00BF9FED53
:10593000A10AF0EE408A002500BF00BF9FED9E2A1D
:10594000DFED9E1A9FED9B1ADFED9A0AB2EE040A74
:105950009B48FEF76DFB9FED962ADFED9A1A9FEDAF
:105960009A1ADFED940AB3EE090A9848FEF760FB35
:105970001AE16FF0C7059648007878B1284605F01F
:105980006EFA41EC1A0B9FED930B53EC102B05F0C4
:10599000B9FA41EC190B05F005FA054600248F48C9
:1059A000007808B1022408E08D48007808B101248D
:1059B00003E08C48007800B103248548007878BB68
:1059C0009FED890AF4EEC08AF1EE10FA28D28448DD
:1059D000007828B38548B0F9060000EE100AB8EE4A
:1059E000C00A9FED831A20EE010AF0EE400A9FEDF7
:1059F000810A7648FEF790FA744890ED0D0ABDEEE4
:105A0000C00A10EE100A00B2784948854FF0FF3402
:105A10000846B0F90200B1F90010884200D1002414
:105A2000E4B97248B0F9060000EE100AB8EEC00AF8
:105A30009FED6F1A20EE010AF0EE400A9FED5D0A1D
:105A40006248FEF769FA614890ED0D0ABDEEC00AA2
:105A500010EE100A00B265494885A1E0022C24D15D
:105A60006248B0F9060000EE100AB8EEC00A9FEDD9
:105A7000601A20EE010AF0EE400A9FED5B0A5348DF
:105A8000FEF74AFA514890ED0D0ABDEEC00A10EE3D
:105A9000100A00B2554948850846B0F90200B1F92C
:105AA000001088427CD100247AE0012C1ED14F489E
:105AB000B0F9060000EE100AB8EEC00A9FED4C1ACD
:105AC00020EE010AF0EE400A00EE105AB8EEC00ACD
:105AD0003E48FEF721FA3D4890ED0D0ABDEEC00AA2
